:1000000050C200006FC200006DC200006BC2000051
:1000100069C2000067C2000065C2000063C2000040
:1000200061C200005FC200005DC200005BC2000050
:1000300059C2000057C200000BC7000053C20000A5
:1000400051C200004FC200004DC200004BC2000070
:1000500049C2000047C2000045C2000043C2000080
:1000600041C200003FC200003DC200003BC2000090
:1000700039C2000037C2000035C2000033C20000A0
:1000800031C200002FC200002DC200002BC20000B0
:1000900029C2000027C2000025C2000023C20000C0
:1000A00021C200001FC200001DC200001BC20000D0
:1000B00019C2000017C2000015C2000013C20000E0
:1000C00011C200000FC200000DC200000BC20000F0
:1000D00009C2000007C2000005C2000003C2000000
:1000E00001C20000FFC10000FDC10000FBC1000013
:1000F000F9C10000F7C10000F5C10000F3C1000024
:10010000F1C10000EFC10000EDC10000EBC1000033
:10011000E9C10000E7C10000E5C10000E3C1000043
:10012000E1C10000DFC10000DDC10000DBC1000053
:10013000D9C10000D7C10000D5C10000D3C1000063
:10014000D1C10000CFC10000CDC10000CBC1000073
:10015000C9C10000C7C10000C5C10000C3C1000083
:10016000C1C10000BFC10000BDC10000BBC1000093
:10017000B9C10000B7C10000B5C10000B3C10000A3
:10018000B1C10000AFC10000ADC10000ABC10000B3
:10019000A9C10000A7C10000A5C10000A3C10000C3
:1001A000A1C100009FC100009DC100009BC10000D3
:1001B00099C1000097C1000095C1000093C10000E3
:1001C00091C100008FC100008DC100008BC10000F3
:1001D00089C1000087C1000085C1000083C1000003
:1001E00081C100007FC100007DC100007BC1000013
:1001F00079C1000077C1000075C100004F104F1099
:100200004F107C10841092104F104F107C108410EF
:10021000000000000000002020202020002050507E
:1002200050000000005050F850F850502078A07056
:1002300028F020C0C810204098186090A040A890D6
:100240006860204000000000102040404020104026
:10025000201010102040005020F8205000002020D6
:10026000F820200000000000602040000000F8009E
:1002700000000000000000606000081020408000C6
:10028000708898A8C888702060202020207070880E
:1002900008102040F8F81020100888701030509096
:1002A000F81010F880F008088870304080F08888D6
:1002B00070F80810204040407088887088887070FE
:1002C00088887808106000606000606000006060EE
:1002D00000602040081020402010080000F800F8BE
:1002E00000008040201020408070880810200020EE
:1002F00070880868A8A87070888888F88888F0884E
:1003000088F08888F070888080808870E090888885
:100310008890E0F88080F08080F8F88080E080802D
:100320008070888080988870888888F8888888702D
:10033000202020202070381010101090608890A08D
:10034000C0A09088808080808080F888D8A8888825
:1003500088888888C8A898888870888888888870DD
:10036000F08888F080808070888888A89068F088FD
:1003700088F0A09088788080700808F0F82020200D
:100380002020208888888888887088888888885075
:1003900020888888A8A8D88888885020508888888D
:1003A000885020202020F80810204080F838202095
:1003B0002020203800804020100800E0202020204D
:1003C00020E020508800000000000000000000F83D
:1003D00040201000000000000070087888788080BD
:1003E000B0C88888F000007080808870080868981D
:1003F00088887800007088F88070304840E040407D
:1004000040000078887808308080B0C888888820CC
:100410000060202020701000301010906040404894
:1004200050605048602020202020700000D0A8A8F4
:1004300088880000B0C88888880000708888887024
:100440000000F088F08080000068987808080000BC
:10045000B0C8808080000070807008F04040E040AC
:100460004048300000888888986800008888885054
:100470002000008888A8A8500000885020508800DC
:100480000088887808700000F8102040F8102020BC
:10049000402020102020202020202040202010203C
:1004A000204011241FBECFEFCDBFDFE5DEBF00E04F
:1004B0000CBF10E2A0E0B0E2ECE2F6E300E00BBF1C
:1004C00002C007900D92A438B107D9F723E2A4E83F
:1004D000B0E201C01D92A930B207E1F70E94801678
:1004E0000C94141B8DCD04C06150710981099109D0
:1004F0006115710581059105B9F70895BF92CF92F5
:10050000DF92EF92FF920F931F93CF93DF931F928F
:10051000CDB7DEB700E016E06894FF24F3F8F801E9
:10052000F68264E070E080E090E0DDDFF801F582C3
:1005300064E070E080E090E0D6DF0F2EFBE2BF2E9B
:10054000F02DB98280EA99E00E94D112C12CD12C01
:10055000760100E412E42FE030E043E0BE016F5F7B
:100560007F4F80EA99E00E94001300E616E0FF2426
:10057000F394F801F682B982BE016F5F7F4F80EA83
:1005800099E00E941A13F801F682E0EAF9E081810D
:1005900085FFFDCF80EA8093A009E0EAF9E0818140
:1005A00086FFFDCFE0EAF9E080E481838081BE012F
:1005B0006F5F7F4F80EA99E00E9430138BE289835E
:1005C000BE016F5F7F4F80EA99E00E941A1381E0BD
:1005D00080936606E0EAF9E0818185FFFDCF86EA37
:1005E0008093A009E0EAF9E0818186FFFDCFE0EA8F
:1005F000F9E080E481838081BE016F5F7F4F80EAF4
:1006000099E00E9430138BE28983BE016F5F7F4FB8
:1006100080EA99E00E941A1381E080936606E0EA7E
:10062000F9E0818185FFFDCF88EC8093A009E0EAA5
:10063000F9E0818186FFFDCFE0EAF9E080E4818383
:100640008081BE016F5F7F4F80EA99E00E94301386
:100650008BE28983BE016F5F7F4F80EA99E00E9441
:100660001A1381E080936606E0EAF9E0818185FF54
:10067000FDCF82EA8093A009E0EAF9E0818186FF5C
:10068000FDCFE0EAF9E080E481838081BE016F5F05
:100690007F4F80EA99E00E9430138BE28983BE018C
:1006A0006F5F7F4F80EA99E00E941A1381E0809388
:1006B0006606E0EAF9E0818185FFFDCF8FE2809355
:1006C000A009E0EAF9E0818186FFFDCFE0EAF9E0E8
:1006D00080E481838081BE016F5F7F4F80EA99E073
:1006E0000E9430138BE28983BE016F5F7F4F80EAE7
:1006F00099E00E941A1381E080936606E0EAF9E02F
:10070000818185FFFDCF88EF8093A009E0EAF9E0C1
:10071000818186FFFDCFE0EAF9E080E4818380817A
:10072000BE016F5F7F4F80EA99E00E9430138BE239
:100730008983BE016F5F7F4F80EA99E00E941A13A0
:1007400081E080936606E0EAF9E0818185FFFDCFD4
:100750001092A009E0EAF9E0818186FFFDCFE0EA8E
:10076000F9E080E481838081BE016F5F7F4F80EA82
:1007700099E00E9430138BE28983BE016F5F7F4F47
:1007800080EA99E00E941A1381E080936606E0EA0D
:10079000F9E0818185FFFDCF81E28093A009E0EA45
:1007A000F9E0818186FFFDCFE0EAF9E080E4818312
:1007B0008081BE016F5F7F4F80EA99E00E94301315
:1007C0008BE28983BE016F5F7F4F80EA99E00E94D0
:1007D0001A1381E080936606E0EAF9E0818185FFE3
:1007E000FDCF81E88093A009E0EAF9E0818186FFEE
:1007F000FDCFE0EAF9E080E481838081BE016F5F94
:100800007F4F80EA99E00E9430138BE28983BE011A
:100810006F5F7F4F80EA99E00E941A1381E0809316
:100820006606E0EAF9E0818185FFFDCF81E28093F1
:10083000A009E0EAF9E0818186FFFDCFE0EAF9E076
:1008400080E481838081BE016F5F7F4F80EA99E001
:100850000E9430138BE28983BE016F5F7F4F80EA75
:1008600099E00E941A1381E080936606E0EAF9E0BD
:10087000818185FFFDCF8FEA8093A009E0EAF9E04E
:10088000818186FFFDCFE0EAF9E080E48183808109
:10089000BE016F5F7F4F80EA99E00E9430130F9096
:1008A000DF91CF911F910F91FF90EF90DF90CF904C
:1008B000BF900895FF920F931F93CF93DF931F92E2
:1008C000CDB7DEB7082FF62E142F0E944B130F70F2
:1008D000006B8BE28983BE016F5F7F4F80EA99E0F6
:1008E0000E941A1381E080936606E0EAF9E09181A4
:1008F00095FFFDCF0093A009E0EAF9E0818186FF32
:10090000FDCFE0EAF9E080E481838081BE016F5F82
:100910007F4F80EA99E00E9430130F2D0F770295E8
:100920000F7000618BE28983BE016F5F7F4F80EAA9
:1009300099E00E941A1381E080936606E0EAF9E0EC
:10094000818185FFFDCF0093A009E0EAF9E0818174
:1009500086FFFDCFE0EAF9E080E481838081BE017B
:100960006F5F7F4F80EA99E00E9430130F2D0F7068
:100970008BE28983BE016F5F7F4F80EA99E00E941E
:100980001A1381E080936606E0EAF9E0818185FF31
:10099000FDCF0093A009E0EAF9E0818186FFFDCF59
:1009A000E0EAF9E080E481838081BE016F5F7F4FE0
:1009B00080EA99E00E9430138BE28983BE016F5F69
:1009C0007F4F80EA99E00E941A1381E080936506C8
:1009D000E0EAF9E0818185FFFDCF1093A009E0EA0C
:1009E000F9E0818186FFFDCFE0EAF9E080E48183D0
:1009F000808181E080936606BE016F5F7F4F80EA51
:100A000099E00E9430130F90DF91CF911F910F91C9
:100A1000FF9008950F931F93CF93DF931F92CDB74D
:100A2000DEB784E890E20E94461368DD8BE289839A
:100A3000BE016F5F7F4F80EA99E00E941A1381E048
:100A400080936606E0EAF9E0818185FFFDCF80E4CE
:100A50008093A009E0EAF9E0818186FFFDCFE0EA1A
:100A6000F9E080E481838081BE016F5F7F4F80EA7F
:100A700099E00E94301300E00AC040E0612F802F0F
:100A800019DF1F5F1038C9F70F5F043011F010E055
:100A9000F4CF0F90DF91CF911F910F910895FF92A6
:100AA0000F931F93CF93DF93882354F1603240F567
:100AB000D42FC82FF62EF694F694F69470E088E0C2
:100AC000F89E60197109112481E090E08C0102C048
:100AD000000F111F6A95E2F76C2F8F2D0E9459139A
:100AE000D13021F028F0D23031F006C0802B04C084
:100AF0000095802301C08027482F6C2F8F2DDADED0
:100B0000DF91CF911F910F91FF9008950C9459138D
:100B10000895FC010396818392832FEF3FEF238397
:100B20003483858396838783908710820895FC01A0
:100B3000108611860895CF93DF939C01FB01DC01A1
:100B40001196CD91DC911297C283D3838C819D81C4
:100B5000848395838C819D81DC0112966D937C93B7
:100B600013976C837D8320873187F90180818F5FA4
:100B70008083DF91CF910895CF93DF93EB0148817C
:100B800059814F3F2FEF520721F4FC01A781B08517
:100B90000DC0DC01139601C0DF011296ED91FC91AE
:100BA00013972081318142175307B0F71296ED91C8
:100BB000FC911397EA83FB83C483D583AC83BD8305
:100BC0001296CD93DC93139788879987FC01208137
:100BD0002F5F2083DF91CF910895CF93DF93FC01A6
:100BE000A085B185C281D381848195818C839D83C9
:100BF000C481D581828193818A839B8311968D9153
:100C00009C911297E817F90731F484819581119628
:100C10008D939C931297108611868C9181508C93A2
:100C20008C91DF91CF9108950F931F938B0171E108
:100C3000FC017083319762E26083319723E3208364
:100C4000012E000C220B330B319700833197108358
:100C50003197208331971082319720E82083319794
:100C60001082319722E02083319723E0208331974F
:100C700024E02083319725E02083319726E02083EC
:100C8000319727E02083319728E02083319729E0AE
:100C90002083319720E1208331977083319722E1BF
:100CA0002083319723E12083319724E120833197FA
:100CB00025E12083319726E12083319727E12083A6
:100CC000319728E12083319729E12083319720E271
:100CD0002083319721E2208331976083319723E28B
:100CE00020833197408331975083319726E22083C8
:100CF000319727E22083319728E22083319729E238
:100D00002083319720E32083319721E32083879745
:100D10001F910F910895F894E0E7F0E083818A7FB6
:100D20008383E0E0F8E080E09AEF86A397A391E068
:100D30009683A0EAB0E012968C9112978160129689
:100D40008C9390837894A091DF22B091E0220D9053
:100D50000DBE0D900EBEFF91EF91DF91CF91BF912F
:100D6000AF919F918F917F916F915F914F913F9143
:100D70002F911F910F91FF90EF90DF90CF90BF9038
:100D8000AF909F908F907F906F905F904F903F902B
:100D90002F901F900F900FBE0F90089581E008953F
:100DA0000F920FB6F8940F921F9211242F923F9238
:100DB0004F925F926F927F928F929F92AF92BF926B
:100DC000CF92DF92EF92FF920F931F932F933F9357
:100DD0004F935F936F937F938F939F93AF93BF9343
:100DE000CF93DF93EF93FF93A091DF22B091E022A6
:100DF0000DB60D920EB60D9280D6A091DF22B09165
:100E0000E0220D900DBE0D900EBEFF91EF91DF918F
:100E1000CF91BF91AF919F918F917F916F915F9192
:100E20004F913F912F911F910F91FF90EF90DF9085
:100E3000CF90BF90AF909F908F907F906F905F907A
:100E40004F903F902F901F900F900FBE0F900895DE
:100E50000F920FB6F8940F921F9211242F923F9287
:100E60004F925F926F927F928F929F92AF92BF92BA
:100E7000CF92DF92EF92FF920F931F932F933F93A6
:100E80004F935F936F937F938F939F93AF93BF9392
:100E9000CF93DF93EF93FF93A091DF22B091E022F5
:100EA0000DB60D920EB60D92E3D4811126D6A09107
:100EB000DF22B091E0220D900DBE0D900EBEFF918D
:100EC000EF91DF91CF91BF91AF919F918F917F91E2
:100ED0006F915F914F913F912F911F910F91FF90D3
:100EE000EF90DF90CF90BF90AF909F908F907F90CA
:100EF0006F905F904F903F902F901F900F900FBE7C
:100F00000F901895CF93DF93EC01A2D4CE010E94ED
:100F10000D17EC0165D5CE01DF91CF910895CF93E8
:100F2000DF93009731F0EC0193D4CE010E94A51716
:100F300057D5DF91CF9108950FB6F8940F92FC0129
:100F4000928D0F900FBE81E0911180E008950F9374
:100F50001F93CF93DF93EC01042F1A8D4C8D442304
:100F6000B9F1011116C050E08A819B810E942E18B0
:100F70002C8D8A819B81820F911D8A839B832C817A
:100F80003D818217930720F1888199818A839B8311
:100F90001FC050E08E819F810E942E188C8D90E0A2
:100FA0009195819591092E813F81280F391F2E83BC
:100FB0003F83488159812417350730F42C813D81C6
:100FC000820F931F8E839F83023011F411111150F1
:100FD0001F5F1A8F80E0DF91CF911F910F910895CD
:100FE000FC01448D4423A9F050E026813781240F71
:100FF000351F26833783848195812817390720F090
:101000008081918186839783CB01668177810C945F
:101010002E180895EF92FF920F931F93CF938C0198
:101020000FB6F8940F92FC01C68D1C169CF48189B2
:10103000811106C00FC0F8018189811105C00AC065
:101040007801F1E1EF0EF11CC701E6D5811167D6F9
:10105000C15089F78FEFF801868F0F900FBE0FB642
:10106000F8940F92C58D1C169CF48085811106C0E2
:101070000FC0F8018085811105C00AC07801F8E031
:10108000EF0EF11CC701C8D5811149D6C15089F7AF
:101090008FEFF801858F0F900FBECF911F910F91A9
:1010A000FF90EF900895CF93DF93EC010FB6F89483
:1010B0000F92E881F9818B8D2C8D90E030E0829F3A
:1010C000A001839F500D929F500D11244E0F5F1F62
:1010D0004C835D831A8EEA83FB830197829FA00174
:1010E000839F500D929F500D1124CF01840F951FA7
:1010F0008E839F838FEF8D8F8E8F61110AC08885BD
:10110000882369F0CE01089687D5882341F048DE10
:1011100006C0CE010896FDDCCE014196FADC0F90A8
:101120000FBE81E0DF91CF9108950F931F93CF936E
:10113000DF93082F162F869FC00111244F96E2DE01
:10114000EC01009769F0111103C08883998303C0F3
:101150004F96888399830B8F1C8F61E0CE01A3DFAC
:10116000CE01DF91CF911F910F910895AF92BF9261
:10117000CF92DF92EF92FF920F931F93CF93DF9363
:10118000CDB7DEB72597CDBFDEBF8C016B014C8399
:101190005D83A22EB12C7C0188E0E80EF11C0FB615
:1011A000F8940F92F801928D838D981718F0F2E061
:1011B000AF1215C04A2DB601C801C9DEF8019189E8
:1011C000992339F0C801419627D5882321F0E8DD1D
:1011D00002C08111E5DD0F900FBE81E046C08C8119
:1011E0009D81892B21F40F900FBE80E03EC0B1108D
:1011F00005C0CE01019658D5BB24B3940F900FBE05
:1012000027D30FB6F8940F92F801858D8F3F09F41C
:10121000158EF801868D8F3F09F4168E0F900FBE44
:10122000BE016C5F7F4FCE01019649D5811119C077
:101230000FB6F8940F92F801928D0F900FBE838D28
:1012400098130BC06C817D81C701BDD4C801E2DE5B
:10125000C7D38111A4CFA4DDA2CFC801DBDEC0D3E8
:101260009ECFC801D7DEBCD380E02596CDBFDEBFC0
:10127000DF91CF911F910F91FF90EF90DF90CF9072
:10128000BF90AF900895EF92FF920F931F93CF936B
:10129000DF938A01FC01528D338D531710F02230F9
:1012A000F1F4422F7801EC011E8D8A8DCE014FDEC4
:1012B0001F3F79F489898823A1F0CE014196ACD4EF
:1012C000882389F0E114F10481F081E0F701808343
:1012D0000DC0FF24F394F10EFE8E81E007C080E084
:1012E00005C081E003C081E001C081E0DF91CF91C2
:1012F0001F910F91FF90EF900895AF92BF92CF9200
:10130000DF92EF92FF920F931F93CF93DF93CDB7AE
:10131000DEB72597CDBFDEBF8C015B014C835D83BB
:10132000E12C6C0181E1C80ED11C0FB6F8940F922C
:10133000F801F28CFF2091F0B501C80151DEFA945A
:10134000F801F28E8085882329F0C801089664D4BC
:10135000811126DD0F900FBE81E045C08C819D81FB
:10136000892B21F40F900FBE80E03DC0E11005C035
:10137000CE01019699D4EE24E3940F900FBE68D26B
:101380000FB6F8940F92F801858D8F3F09F4158EF2
:10139000F801868D8F3F09F4168E0F900FBEBE01A7
:1013A0006C5F7F4FCE0101968AD4811113C0C801B2
:1013B000C3DD882359F06C817D81C60104D4C80146
:1013C00029DE0ED38111B1CFEBDCAFCFC80122DE15
:1013D00007D3ABCFC8011EDE03D3C801ADDD882320
:1013E00009F4A3CF80E02596CDBFDEBFDF91CF917A
:1013F0001F910F91FF90EF90DF90CF90BF90AF9033
:101400000895DF92EF92FF920F931F93CF93DF9394
:10141000CDB7DEB72597CDBFDEBF8C016C837D8352
:10142000D12C7C0181E1E80EF11C0FB6F8940F92EB
:10143000F801828D882371F08150828F8085882306
:1014400029F0C8010896E8D38111AADC0F900FBEDD
:1014500081E045C08C819D81892B21F40F900FBEC6
:1014600080E03DC0D11005C0CE0101961DD4DD2421
:10147000D3940F900FBEECD10FB6F8940F92F801F1
:10148000858D8F3F09F4158EF801868D8F3F09F405
:10149000168E0F900FBEBE016C5F7F4FCE0101967E
:1014A0000ED4811113C0C80147DD882359F06C8127
:1014B0007D81C70188D3C801ADDD92D28111B5CF3E
:1014C0006FDCB3CFC801A6DD8BD2AFCFC801A2DDE0
:1014D00087D2C80131DD882309F4A7CF80E02596A3
:1014E000CDBFDEBFDF91CF911F910F91FF90EF90A5
:1014F000DF900895CF93DF93EC010FB6F8940F922D
:101500008D8D8F3F09F41D8E8E8D8F3F09F41E8EB9
:101510000F900FBE8A8D811103C0CE01419664D316
:10152000CE0178DDDF91CF910895E0919E22F09178
:101530009F228081811107C08FEF9FEF80938722C8
:10154000909388220895E0919E22F0919F22058039
:10155000F681E02D8081918180938722909388226B
:101560000895C2EBD2E288818230E8F319DCFBCF28
:101570000F931F93CF93DF93EC0100919022109172
:1015800091228091DF229091E022029626DBC00F0B
:10159000D11FE091DF22F091E022C283D383C017F4
:1015A000D10760F46091DF227091E02280919C224B
:1015B00090919D226E5F7F4FDFDA16C06091DF222F
:1015C0007091E02280919E2290919F226E5F7F4FCA
:1015D000D3DA8091872290918822C817D90720F406
:1015E000C0938722D0938822DF91CF911F910F91D2
:1015F00008954F925F926F927F928F929F92AF92D7
:10160000BF92CF92DF92EF92FF920F931F93CF93EF
:10161000DF934C016B015A012901CA0173DC3C01C3
:10162000892B09F4D6C086E290E06CDCEC01892BB2
:1016300059F06F8A788E81E0A81AB108A60CB71C01
:10164000C114D10421F41FC0C30169DCC2C0D6019A
:101650008C91898F8C918823A1F0AE01465E5F4FFB
:10166000F6013196B8E0CB0ED11CCF012191DA0101
:101670002D93AD01DC018C91882319F0CE16DF0685
:10168000A1F718A201C0198E053008F004E00E8BF6
:101690006E01B2E0CB0ED11CC60149DACE010C9628
:1016A00046DAC887D98785E090E0801B91098C874E
:1016B0009D87CA8BDB8B84E0FE01B196DF011D9212
:1016C0008A95E9F71DA2A201B401C501ADDA8883AC
:1016D0009983E114F10419F0F701C083D1830FB6A7
:1016E000F8940F92809192228F5F80939222809142
:1016F000DF229091E022892B69F5C093DF22D093FD
:10170000E022809192228130A9F502EB12E20F2EA5
:10171000FFEDEF2EF2E2FF2EF02DC801FAD9075FA0
:101720001F4F0E151F05C9F789EA92E2F2D980EA28
:1017300092E2EFD983E992E2ECD989EA92E28093CE
:101740009E2290939F2280EA92E280939C22909323
:101750009D2210C080918E2281110CC0E091DF2269
:10176000F091E02296898E89891720F0C093DF22BC
:10177000D093E022809189228F5F809389228E8985
:1017800090918F22981710F480938F2290E09C0103
:10179000220F331F220F331F220F331F820F931F7D
:1017A000B6018E549D4DC7D90F900FBE80918E22E9
:1017B000882359F0E091DF22F091E02296898E890A
:1017C000981728F4EDDA81E005C081E003C081E0DC
:1017D00001C08FEFDF91CF911F910F91FF90EF909C
:1017E000DF90CF90BF90AF909F908F907F906F9041
:1017F0005F904F900895EF92FF920F930F2EF5E8B0
:10180000EF2EF2E2FF2EF02D00E020E030E045E583
:1018100050E06EE070E281EB9AE0EBDE813091F413
:10182000E7D2813079F4F8948FEF9FEF809387228D
:101830009093882281E080938E22109290221092C1
:10184000912269DA809106200F91FF90EF90089520
:10185000809184228F5F8093842208950FB6F8943C
:101860000F9280919022909191220F900FBE089537
:10187000DF92EF92FF920F931F93CF93DF938091AC
:10188000842281119AC0E0909022F09091228FEFF3
:10189000E81AF80AE0929022F0929122E114F10401
:1018A000B1F480919E2290919F2220919C223091B0
:1018B0009D2220939E2230939F2280939C2290937E
:1018C0009D2280918A228F5F80938A222EDE8091D2
:1018D000872290918822E816F90610F4D12C4FC087
:1018E000D12CE0919E22F0919F228081811107C02E
:1018F0008FEF9FEF809387229093882240C0E091E2
:101900009E22F0919F220580F681E02DC681D7812D
:101910008A819B81E816F90628F4809387229093A8
:1019200088222DC08E010E5F1F4FC80156D98C89A9
:101930009D89892B19F0CE010C964FD98E899091F3
:101940008F22981710F480938F2290E09C01220F31
:10195000331F220F331F220F331F820F931FB80133
:101960008E549D4DE8D8E091DF22F091E0229E89CF
:101970008689981708F4B5CFDD24D394B2CFE091CF
:10198000DF22F091E022868990E0FC01EE0FFF1F3C
:10199000EE0FFF1FEE0FFF1F8E0F9F1FFC01EE5477
:1019A000FD4D8081823010F0DD24D39480918B2214
:1019B000882369F0DD24D3940AC080918C22909111
:1019C0008D22019680938C2290938D22D12C8D2D87
:1019D000DF91CF911F910F91FF90EF90DF900895CD
:1019E000DF92EF92FF920F931F93CF93DF930FB687
:1019F000F8940F9280918422815080938422809168
:101A0000842281115DC080919222811130C05BC01F
:101A1000D7011596ED91FC911697C681D781CE011D
:101A20000C96DBD88E010E5F1F4FC801D6D88E8969
:101A300090918F22981710F480938F2290E09C0150
:101A4000220F331F220F331F220F331F820F931FCA
:101A5000B8018E549D4D6FD8E091DF22F091E022C5
:101A60009E898689981768F0D0928B220AC0C0E0C0
:101A7000D0E00F2EF3E9EF2EF2E2FF2EF02DDD2461
:101A8000D394F70180818111C3CFCD2B09F04DDDB7
:101A9000C0918C22D0918D22209759F011E0E8DE80
:101AA000811110938B222197D1F710928C221092E2
:101AB0008D2280918B22882329F072D981E003C086
:101AC00080E001C080E00F900FBEDF91CF911F91A9
:101AD0000F91FF90EF90DF900895CF93DF93EC018B
:101AE000892B39F0B5DE60E0CE0142DD79DF81116E
:101AF00001C056D9DF91CF91089580918422882327
:101B000021F081E080938B22089510928B22209106
:101B10008F22822F90E0FC01EE0FFF1FEE0FFF1FC0
:101B2000EE0FFF1FE80FF91FEE54FD4D308131110C
:101B300011C02150822F90E0FC01EE0FFF1FEE0F2D
:101B4000FF1FEE0FFF1FE80FF91FEE54FD4D308110
:101B5000332379F3AC01440F551F440F551F440F35
:101B6000551F480F591FDA01AE54BD4D1196ED9126
:101B7000FC9112970280F381E02D1196ED93FC9376
:101B800012974B545D4DE417F50729F442815381B8
:101B9000FD0141835283FC01EE0FFF1FEE0FFF1F7B
:101BA000EE0FFF1F8E0F9F1FFC01EE54FD4D0180B5
:101BB000F281E02D868197818093DF229093E0224D
:101BC00020938F220895CF93DF93EB016091DF2262
:101BD0007091E022645F7F4F0E94BC0561E0CE01FE
:101BE000C7DCDF91CF9108950F931F93CF938B01A3
:101BF000C42F6091DF227091E022645F7F4F0E94CA
:101C00009B05CC2311F00FEF1FEF6C2FC801B0DC48
:101C1000CF911F910F9108950F931F93CF93DF934F
:101C2000DC011596ED91FC911697C681D7818E0146
:101C3000045F1F4FC8010E94ED058091842281112D
:101C40001CC00A501109C8010E94ED058E899091AF
:101C50008F22981710F480938F2290E09C01220F1E
:101C6000331F220F331F220F331F820F931FB80120
:101C70008E549D4D0E949B0505C0B80183E992E2F8
:101C80000E949B05E091DF22F091E0229E898689E7
:101C9000891720F481E080938B2201C080E0DF91DE
:101CA000CF911F910F91089520918A22FC012083EA
:101CB00020919022309191222183328308950FB692
:101CC000F8940F922091902230919122DC0111968C
:101CD0004D915C911297E0918A22FC91FE1741F0A0
:101CE0002417350728F0FB011082118281E014C00F
:101CF000241B350BDB014D915C912417350740F413
:101D0000FB01421B530B40835183CEDF80E004C0B4
:101D1000FB011082118281E00F900FBE089581E0D7
:101D200080938B22089580918E22882331F08091B8
:101D30008422882321F080E0089581E0089582E0E4
:101D40000895FC0162837383808791874617570744
:101D500090F0421B530B8485958548175907E0F492
:101D6000BF016E5F7F4F8091E7229091E8220E9431
:101D7000BC0580E008954217530718F462177307F3
:101D800068F4BF016E5F7F4F8091E9229091EA2253
:101D90000E94BC0580E0089581E0089581E00895E7
:101DA0000FB6F8940F928091E5229091E622892B4C
:101DB000E1F484EF92E20E9489058BEE92E20E94A8
:101DC000890584EF92E28093E9229093EA228BEED8
:101DD00092E28093E7229093E82240E065E08AE077
:101DE000A4D98093E5229093E6220F900FBE089528
:101DF000EF92FF920F93D4DF8091E5229091E6223B
:101E0000892B89F00F2EF3EEEF2EF2E2FF2EF02D4C
:101E100003E020E030E045E550E063E170E288EC6B
:101E20009FE0E7DB01C080E00F91FF90EF90089505
:101E30000F931F93CF93DF93CDB7DEB72597CDBF19
:101E4000DEBFE091E522F091E622309751F1D90111
:101E500069834A835B838C839D836630D4F463DF1C
:101E6000823059F420E0A801BE016F5F7F4F80915E
:101E7000E5229091E6227AD915C020E040E050E0BA
:101E8000BE016F5F7F4F8091E5229091E6226ED96F
:101E900009C020E0AD01BE016F5F7F4FCF01F3D9D4
:101EA00001C080E02596CDBFDEBFDF91CF911F91AD
:101EB0000F910895AF92BF92CF92DF92EF92FF926F
:101EC0000F931F93CF93DF936C01C8DC7C0180914B
:101ED000E1229091E222E816F90608F047C02FC0EF
:101EE0000580F681E02DA080B180C681D7818E016A
:101EF0000E5F1F4FC8010E94ED05E889F989CE01E8
:101F000019958A8982FF1BC08C859D858A0D9B1D32
:101F1000A816B90660F48A839B83C887D987B8015D
:101F20008091E9229091EA220E94BC0508C000E05D
:101F300010E020E030E0A50160E0CE0179DFE09123
:101F4000E922F091EA2280818111CACF8091E722B3
:101F50009091E8228093E9229093EA22E093E7228D
:101F6000F093E82281E0F601808302C0F60110823E
:101F7000E092E122F092E222C701DF91CF911F911E
:101F80000F91FF90EF90DF90CF90BF90AF900895AA
:101F9000CF93DF9300D000D0CDB7DEB7CE0101964E
:101FA0005C01E82EFB2CE091E922F091EA2280818D
:101FB000882309F4CFC00580F681E02DC080D18050
:101FC00047DCC50177DF8C018981811146C00C1582
:101FD0001D05A0F105DDE091E922F091EA220580DE
:101FE000F681E02D86809780C40102960E94ED055F
:101FF000D40152968C91529782FF15C01C966D9118
:102000007C911D976C0D7D1D9601A801C40199DE80
:10201000882361F000E010E020E030E0A60160E0FD
:10202000C40106DF03C08E7FF401828BD401509679
:10203000ED91FC915197C401199580C040E0B60123
:10204000601B710B8091E5229091E62253DAC8DC87
:10205000811174C00E94D00671C0C2DC6FC089813A
:1020600088230CF46BC0CC80DD80F60182859385DB
:10207000892B21F0C60102960E94ED05CE0106963D
:1020800019DFAC01E9810E2E000CFF0BEA30F105DF
:1020900008F054C08827E250FF4F8F4FB6C6D601D4
:1020A00052968C915297816052968C9352972A81C6
:1020B0003B811C966D917C911D97620F731FC60129
:1020C00040DE8823D9F1D6015096ED91FC915197CD
:1020D000C6011995F601828982FF30C04A815B8171
:1020E00084859585480F591F00E010E020E030E01E
:1020F00060E0C6019DDE22C0D60152968C915297B7
:102100008E7F52968C931AC0F60182898160828BF1
:102110006A817B8164877587640F751F9A01C60188
:1021200010DE0CC0D60152968C9181FD04C0C60110
:102130000E948F0703C08E7FF601828B40E050E043
:102140006E2D7F2D8091E5229091E622D6D88111C7
:1021500086CF29CF7DDBC501ADDE8C018981811160
:102160007CCFE091E722F091E822808141E081116B
:1021700040E0C12CD12C63CFCF92DF92EF92FF923F
:102180000F931F93CF93DF93EC01D901C801B6954C
:10219000A79597958795481759076A077B0770F4A5
:1021A0006A017B01CC0CDD1CEE1CFF1CC901B801CF
:1021B000A701960108D62150310902C020E030E085
:1021C000832F8F708F832E83DF91CF911F910F917B
:1021D000FF90EF90DF90CF900895DF92EF92FF9203
:1021E0000F931F93CF93DF931F92CDB7DEB77C0180
:1021F0008B01009709F4B2C1803C910521F460E1A4
:1022000080E0E7D2ABC180E8E81681E0F80621F46F
:1022100062E080E0DED2A2C1E114E1E0FE0621F43A
:1022200061E080E0D6D29AC1F0E8EF16F3E0FF0655
:1022300021F461E081E0CDD291C130E9E31633E0D1
:10224000F30621F461E082E0C4D288C1E11482E0A7
:10225000F80621F462E081E0BCD280C1E0E4EE1631
:10226000E2E0FE0621F462E082E0B3D277C1F0E260
:10227000EF16F3E0FF0621F464E082E0AAD26EC11B
:10228000E11438E0F30621F461E083E0A2D266C1F4
:10229000E11489E0F80621F461E084E09AD25EC19D
:1022A000E114EAE0FE0621F461E085E092D256C135
:1022B000E114FBE0FF0621F461E086E08AD24EC122
:1022C00030E4E31638E0F30621F462E083E081D2E3
:1022D00045C180E4E81689E0F80621F462E084E074
:1022E00078D23CC1E0E4EE16EAE0FE0621F462E0BA
:1022F00085E06FD233C1F0E9EF16F8E0FF0621F474
:1023000064E083E066D22AC130E9E31639E0F306DF
:1023100021F464E084E05DD221C180E9E8168AE01E
:10232000F80621F464E085E054D218C1E0E9EE1625
:10233000EBE0FE0621F464E086E04BD20FC1F0EC46
:10234000EF16F8E0FF0621F468E083E042D206C110
:1023500030ECE31639E0F30621F468E084E039D28A
:10236000FDC080EAE81688E0F80661F460E183E0E9
:1023700030D2E0EAF8E084818F7E8483F801248102
:1023800022504CC0F0EAEF16F9E0FF0621F460E1BC
:1023900084E01FD2E3C030EAE3163AE0F30621F40A
:1023A00060E185E016D2DAC080EAE8168BE0F80634
:1023B00021F460E186E00DD2D1C0E0EBEE16E8E05A
:1023C000FE0621F460E283E004D2C8C0F0EBEF1611
:1023D000F9E0FF0621F460E284E0FBD1BFC030E801
:1023E000E31634E0F30621F460E483E0F2D1B6C0F2
:1023F00080EAE81684E0F80621F460E485E0E9D19B
:10240000ADC0F70184818F7E8483FB01248122503B
:10241000C701F0EAEF16F8E0FF0649F480914E0696
:1024200084FDA5C00F2EF1E1DF2EF02DA4C0803B6E
:1024300038E0930791F0803AE9E09E0749F4309143
:102440006E0634FD9BC00F2EF9E1DF2EF02D16C075
:10245000803BF9E09F07F1F004C00F2EF5E1DF2E7D
:10246000F02D803A3AE0930749F480918E0684FD7E
:102470008AC00F2EF1E2DF2EF02D15C0803A9B406E
:1024800091F48091AE0684FD0AC00F2EF9E2DF2E92
:10249000F02D09C00F2EFDE1DF2EF02D04C00F2E10
:1024A000FDE2DF2EF02DED2DE695E695E69530E286
:1024B000E39FF0011124FA5F3D2D377081E090E039
:1024C000032E02C0880F991F0A94E2F781832230FD
:1024D00010F040E001C040E4DF015096A30FB11DB1
:1024E0009FB79983F89439812C9127702C939C91F4
:1024F000942B9C933FBF8583F7018581806C8583F6
:10250000F80184818D7F813029F4F7018581826013
:10251000858304C0F70185818D7F8583F8018581DE
:10252000882329F0F70185818460858304C0F70141
:1025300085818B7F8583F801408151816281738120
:1025400000E814E82EE130E0C70116DEF7018481CF
:10255000886084838481806184831AC0F7018481C8
:102560008F7E8483F80124812250C70160CF0F2E13
:10257000F5E1DF2EF02D80EA98E06ACF0F2EFDE125
:10258000DF2EF02D7BCF0F2EF5E2DF2EF02D8BCF3F
:102590000F90DF91CF911F910F91FF90EF90DF90FF
:1025A0000895803A28E0920721F460E183E011C1A8
:1025B0000895803B28E0920721F460E283E009C19E
:1025C0000895803A29E0920721F460E184E001C196
:1025D0000895803B29E0920721F460E284E0F9C08D
:1025E0000895803A2AE0920721F460E185E0F1C085
:1025F0000895803A9B4019F460E186E0EAC00895AE
:102600000F931F93CF93DF9300D000D0CDB7DEB7E9
:1026100009831A832B833C834D831E82BE016F5F27
:102620007F4FDBDD2696CDBFDEBFDF91CF911F91BF
:102630000F910895FB018081E82FE695E695E695D8
:1026400040E2E49FF0011124FA5F877021E030E05E
:10265000A90102C0440F551F8A95E2F746830895E9
:10266000FB018081E82FE695E695E69540E2E49F40
:10267000F0011124FA5F877021E030E0A90102C067
:10268000440F551F8A95E2F7458308958093FD22F4
:102690009093FE2208952091FD223091FE2290E831
:1026A000899F200D311D1124F901E60FF11D408392
:1026B00008952091FD223091FE2290E8899F200DFF
:1026C000311D1124F901E60FF11D80810895FF925B
:1026D0000F931F93CF93DF93E42FF0E0E80FF11DEA
:1026E000E138F1051CF0C0E84C2F481B442309F4E5
:1026F00050C0D62FD695D695D69570E098E0D99F44
:10270000601971091124E1E0F0E0DF0102C0AA0FB5
:10271000BB1F6A95E2F7FA2E213021F0A8F0223093
:1027200039F137C0C42F1FEF180F012F0C0F602F86
:102730008D2F0E9486054F2D482B602F8D2F0E94D4
:102740005A04C15091F725C0C42F1FEF180FFA2E5D
:10275000F094012F0C0F602F8D2F0E9486054F2DB6
:102760004823602F8D2F0E945A04C15091F711C049
:10277000C42F1FEF180F012F0C0F602F8D2F0E94F9
:1027800086054F2D4827602F8D2F0E945A04C15077
:1027900091F7DF91CF911F910F91FF900895FF92D4
:1027A0000F931F93CF93DF93222369F0F42E182FFA
:1027B000C22FDFEFD60F6D2F6C0F202F4F2D812FE3
:1027C00086DFC150C1F7DF91CF911F910F91FF902C
:1027D0000895CF93DF931F92CDB7DEB79FB799834C
:1027E000F8949981E82FF0E0E059FF4F60958081DF
:1027F000682360839FBF0F90DF91CF910895AF92C0
:10280000BF92CF92DF92EF92FF920F931F93CF93DD
:10281000DF93C82FE62EB42E690100E0F901248170
:1028200043816B2D8E2DBBDFF601808181113AC073
:102830008381282F269526952695877009F02F5F8E
:10284000F601A4808C2F90E03581831B91092A9D8D
:1028500090011124829FA001839F500D929F500DE3
:10286000112401811281040F151FF601F380FF204E
:10287000A9F0D0E0C0E08E2D8C0F9C2F977021F432
:10288000F801D4910F5F1F4FDD2324F441E06B2D3D
:102890000E944F05DD0FCF5FFC12EDCFB394AA94D9
:1028A000A110E3CFDF91CF911F910F91FF90EF9097
:1028B000DF90CF90BF90AF900895DF92EF92FF929C
:1028C0000F931F93CF93DF93D62E042F7901EC0142
:1028D000162F89918A3031F4F70184818F5F080FB8
:1028E0001D2D09C08D3039F09701402F612F87DFF2
:1028F000F7018381180F88818111EBCFDF91CF9190
:102900001F910F91FF90EF90DF900895CF93DF9389
:10291000FC0120E030E0C62FD0E0DE01022E02C034
:10292000B595A7950A94E2F7A0FD508B2F5F3F4F16
:1029300031962830310589F740FF0AC041FF03C0B6
:10294000FC01658302C0FC016683FC01618302C057
:10295000FC016283DF91CF91089543E050E061E094
:1029600080EE97E0D3DF43E050E062E080EE97E056
:10297000CDDF43E050E060E180E696E0C7DF41E074
:1029800050E460E280E696E0C1DF40E05BE160E2B7
:1029900080E896E0BBDF40E05BE162E080EA96E041
:1029A000B5DF40E05BE164E080EA96E0AFDF43E062
:1029B00050E062E080E696E0A9DF43E050E068E0A6
:1029C00080E696E0A3DF43E050E068E080EA96E02E
:1029D0009DDF43E050E061E080E696E097DF43E072
:1029E00050E068E080E096E091DF41E050E060E197
:1029F00080E896E08BDF43E050E062E080E696E01E
:102A000085DF43E050E068E080E696E07FDF40E06D
:102A100050E064E080E696E079DF43E050E060E17A
:102A200080EA96E073DF40E050E061E080E096E00D
:102A30006DDF40E050E064E080E096E067DF40E07A
:102A400050E062E080E296E061DF43E050E068E061
:102A500080E496E05BDF40E050E064E080E496E0F4
:102A600055DF43E050E068E080E696E04FDF40E06D
:102A700050E064E080E696E049DF43E050E068E043
:102A800080E896E043DF40E050E064E080E896E0D4
:102A90003DCF0895CF93DF93CDB7DEB7C058D109AE
:102AA000CDBFDEBF0F2EFBE1EF2EF0E2FF2EF02DAB
:102AB0006894BB24B7F88E010F5F1F4F0F2EF0E410
:102AC000CF2EF6E0DF2EF02DAA24A3946AE070E06A
:102AD00080910323909104230E94010A813071F5B3
:102AE000809101239091022301968093012390937A
:102AF00002239F938F93FF92EF921F92BF921F9397
:102B00000F93B5D227E030E248E060E0C801D5DE9F
:102B100080910123CDBFDEBF80FD03C0F601A582F9
:102B200002C0F601A68220E040E050E060E070E0E4
:102B300080910323909104230E94B60882E390E0E1
:102B40000E946D0DC3CFCF93DF93CDB7DEB7C058D2
:102B5000D109CDBFDEBF00EA16E0F801808581FD16
:102B60003BC06AE070E080910323909104230E94AF
:102B7000010A813089F58091FF229091002321E0A4
:102B800030E0009711F020E030E02093FF223093F6
:102B90000023892B41F027E030E240E060E089E249
:102BA00090E28BDE07C027E030E240E060E08CE39B
:102BB00090E283DE27E030E248E060E0CE0101965B
:102BC0007CDE20E040E050E060E070E08091032394
:102BD000909104230E94B60885E090E00E946D0D5C
:102BE000BCCFCF93DF93CDB7DEB7C058D109CDBFEF
:102BF000DEBF80E090E00F2EF0EEAF2EF7E0BF2EAC
:102C0000F02D6894882481F80F2EFFE4CF2EF0E297
:102C1000DF2EF02D6894992497F89E012F5F3F4F87
:102C2000790101E0009709F000E010E0009719F445
:102C3000F501858202C0F501868221E030E0892B12
:102C400009F420E03F932F93DF92CF921F929F923F
:102C5000FF92EF920CD227E030E248E160E0C7013A
:102C60002CDE84E690E00E946D0DCDBFDEBFC80172
:102C7000D8CFCF93DF93CDB7DEB7C058D109CDBF42
:102C8000DEBF81E090E00F2EF0EEAF2EF7E0BF2E1A
:102C9000F02D0F2EFBE5CF2EF0E2DF2EF02D689405
:102CA000992497F89E012F5F3F4F790101E000972B
:102CB00009F000E010E0009721F421E0F501258300
:102CC00003C021E0F501268321E030E0892B09F4DF
:102CD00020E03F932F93DF92CF921F929F92FF921B
:102CE000EF92C5D127E030E240E160E0C701E5DDC9
:102CF00082E390E00E946D0DCDBFDEBFC801D6CF4C
:102D0000EF92FF920F9381E08093410626DE87E0E9
:102D10008093A2000E940A0580E18093850627E047
:102D200030E240E060E087E690E2C7DD27E030E295
:102D300048E060E088E790E2C0DDE12CF12C01E0A2
:102D400020E030E048EE53E06BE370E289E396E187
:102D50000E94F90A02E020E030E048EE53E06BE325
:102D600070E281EF95E10E94F90A03E020E030E093
:102D700048EE53E06BE370E283EA95E10E94F90AC2
:102D800000E020E030E048EE53E06BE370E28AE4DC
:102D900095E10E94F90A43E060E081E00E94950815
:102DA000809303239093042320E040E050E060E010
:102DB00070E00E94B6080E94FB0B80E090E00F914B
:102DC000FF90EF900895A1E21A2EAA1BBB1BFD01F4
:102DD0000DC0AA1FBB1FEE1FFF1FA217B307E407FA
:102DE000F50720F0A21BB30BE40BF50B661F771F52
:102DF000881F991F1A9469F7609570958095909532
:102E00009B01AC01BD01CF010895EE0FFF1F881F8C
:102E10008BBF0790F691E02D19940F931F93CF93DA
:102E2000DF938230910510F482E090E0E091072377
:102E3000F091082320E030E0A0E0B0E0309719F1F5
:102E4000408151810281138148175907C8F08417C6
:102E5000950769F4109731F012960C931297139618
:102E60001C9327C0009307231093082322C0211529
:102E7000310519F04217530718F49A01BD01EF010B
:102E8000DF01F801DBCF21153105F9F0281B390BE3
:102E90002430310580F48A819B816115710521F010
:102EA000FB018283938304C08093072390930823BC
:102EB000FE01329644C0FE01E20FF31F819391930D
:102EC00022503109288339833AC02091052330915B
:102ED0000623232B41F420910220309103202093DC
:102EE00005233093062320910020309101202115E5
:102EF000310541F42DB73EB7409104205091052093
:102F0000241B350BE0910523F0910623E217F3070C
:102F1000A0F42E1B3F0B2817390778F0AC014E5F49
:102F20005F4F2417350748F04E0F5F1F409305236E
:102F3000509306238193919302C0E0E0F0E0CF012B
:102F4000DF91CF911F910F910895CF93DF93009759
:102F500009F481C0FC01329712821382A0910723E9
:102F6000B0910823109781F420813181820F931F43
:102F700020910523309106232817390751F5E09356
:102F80000523F093062367C0ED0120E030E0CE1763
:102F9000DF0740F44A815B819E0141155105F1F044
:102FA000EA01F5CFC283D38340815181840F951FFD
:102FB000C817D90759F488819981840F951F029603
:102FC000808391838A819B8182839383211531053C
:102FD00029F4E0930723F09308233DC0E901EA8335
:102FE000FB8349915991C40FD51FEC17FD0761F47C
:102FF00080819181840F951F0296E90188839983CE
:10300000828193818A839B83E0E0F0E012968D9128
:103010009C911397009719F0FD01DC01F7CF8D917A
:103020009C9111979D012E5F3F4F820F931F20911E
:103030000523309106232817390769F4309729F4BE
:10304000109207231092082302C012821382A093C9
:103050000523B0930623DF91CF910895FB01DC0196
:1030600002C001900D9241505040D8F708950F933F
:103070001F93CF93DF93CDB7DEB72E97CDBFDEBFC3
:103080000E891F89888D998D26E02C8309831A83E8
:1030900097FF02C080E090E801978D839E83AE0188
:1030A000445E5F4F6A8D7B8DCE01019616D04D81B7
:1030B0005E8157FD0AC02F813885421753070CF4F3
:1030C0009A01F801E20FF31F10822E96CDBFDEBFEA
:1030D000DF91CF911F910F9108952F923F924F92C0
:1030E0005F926F927F928F929F92AF92BF92CF9298
:1030F000DF92EF92FF920F931F93CF93DF93CDB7A1
:10310000DEB72B97CDBFDEBF6C017B018A01FC01CE
:1031100016821782838181FFBFC1CE0101963C01D7
:10312000F6019381F70193FD859193FF81917F01D2
:10313000882309F4ADC1853239F493FD859193FF5D
:1031400081917F01853221F4B60190E0D3D1E8CF9F
:10315000912C212C312CFFE1F315D8F08B3279F032
:1031600038F4803279F08332A1F4232D20611DC020
:103170008D3261F0803369F4232D216016C0832DD8
:103180008260382EE32DE4603E2E2AC0F32DF860D5
:103190001DC037FC2DC020ED280F2A3040F08E32A4
:1031A000B9F436FC75C1232D2064322E19C036FEC9
:1031B00006C08AE0989E200D1124922E11C0EAE0EC
:1031C0002E9E200D1124222EF32DF0623F2E08C0DA
:1031D0008C3621F4832D8068382E02C0883641F465
:1031E000F70193FD859193FF81917F018111B3CF09
:1031F000982F9F7D9554933028F40C5F1F4F9FE3C9
:1032000099830DC0833631F0833771F0833509F02F
:1032100055C020C0F801808189830E5F1F4F88242C
:103220008394912C530112C02801F2E04F0E511CDF
:10323000F801A080B18036FE03C0692D70E002C0A5
:103240006FEF7FEFC5014BD14C018201F32DFF776A
:103250003F2E15C0280122E0420E511CF801A0802B
:10326000B18036FE03C0692D70E002C06FEF7FEFC2
:10327000C5012AD14C01F32DF0683F2E820133FCA9
:1032800019C0822D90E088169906A0F4B60180E25C
:1032900090E030D12A94F5CFF50137FC859137FEC7
:1032A00081915F01B60190E025D121102A9421E09F
:1032B000821A91088114910479F7E1C0843611F0E3
:1032C000893639F5F80137FE07C060817181828146
:1032D00093810C5F1F4F08C060817181072E000C25
:1032E000880B990B0E5F1F4FF32DFF763F2E97FF34
:1032F00009C090958095709561957F4F8F4F9F4F36
:10330000F0683F2E2AE030E0A30130D1882E8618E5
:1033100044C0853731F4232D2F7EB22E2AE030E0D1
:1033200025C0932D997FB92E8F36C1F018F48835BA
:1033300079F0AEC0803719F0883721F0A9C0E92FA5
:10334000E061BE2EB4FE0DC0FB2DF460BF2E09C09F
:1033500034FE0AC0292F2660B22E06C028E030E0D5
:1033600005C020E130E002C020E132E0F801B7FE04
:1033700007C060817181828193810C5F1F4F06C0FD
:103380006081718180E090E00E5F1F4FA301EED05D
:10339000882E8618FB2DFF773F2E36FE0DC0232D7D
:1033A0002E7FA22E891458F434FE0BC032FC09C0C3
:1033B000832D8E7EA82E05C0B82CA32C03C0B82C5C
:1033C00001C0B92CA4FE0FC0FE01E80DF11D8081E3
:1033D000803321F49A2D997EA92E09C0A2FE06C041
:1033E000B394B39404C08A2D867809F0B394A3FCF7
:1033F00010C0A0FE06C0B21480F4280C922C9B18BA
:103400000DC0B21458F4B60180E290E073D0B394CA
:10341000F8CFB21418F42B1802C0982C212CA4FE5B
:103420000FC0B60180E390E065D0A2FE16C0A1FCFB
:1034300003C088E790E002C088E590E0B6010CC0C8
:103440008A2D867851F0A1FE02C08BE201C080E295
:10345000A7FC8DE2B60190E04DD0891430F4B6019E
:1034600080E390E047D09A94F8CF8A94F301E80D76
:10347000F11D8081B60190E03DD08110F6CF222071
:1034800009F44ECEB60180E290E034D02A94F7CF12
:10349000F6018681978102C08FEF9FEF2B96CDBFFB
:1034A000DEBFDF91CF911F910F91FF90EF90DF90E2
:1034B000CF90BF90AF909F908F907F906F905F90D4
:1034C0004F903F902F900895FC01059061507040FF
:1034D0000110D8F7809590958E0F9F1F0895FC01DD
:1034E0006150704001900110D8F7809590958E0F33
:1034F0009F1F08950F931F93CF93DF93FB012381A9
:1035000021FD03C08FEF9FEF2CC022FF16C0468124
:103510005781248135814217530744F4A081B1813A
:103520009D012F5F3F4F208331838C93268137810C
:103530002F5F3F4F2683378314C08B01EC01FB01C3
:103540000084F185E02D1995892BE1F6D8011696B6
:103550008D919C911797019616968D939C93179732
:10356000CE01DF91CF911F910F910895FA01AA2703
:10357000283051F1203181F1E8946F936E7F6E5FB6
:103580007F4F8F4F9F4FAF4FB1E03ED0B4E03CD064
:10359000670F781F891F9A1FA11D680F791F8A1F47
:1035A000911DA11D6A0F711D811D911DA11D20D0AE
:1035B00009F468943F912AE0269F11243019305D68
:1035C0003193DEF6CF010895462F4770405D419359
:1035D000B3E00FD0C9F7F6CF462F4F70405D4A33A6
:1035E00018F0495D31FD4052419302D0A9F7EACF6E
:1035F000B4E0A6959795879577956795BA95C9F79D
:1036000000976105710508959B01AC010A2E06948F
:103610005795479537952795BA95C9F7620F731F48
:0C362000841F951FA01D0895F894FFCF93
:10362C00000009232000040010020607207D4944F5
:10363C004C4500546D722053766300436F756E7465
:10364C006572203A20256420005072616B74696B9E
:10365C00756D20352052544F5320200053616D75E9
:10366C00656C203139303632383535393220004CE2
:10367C0045442031203A20256420004C454420301C
:10368C00203A20256420005072616B74696B756D53
:10369C0020352052544F5300436F756E7465722061
:0436AC003A20300090
:00000001FF
