S01200005072616B74696B756D332E7372656327
S113000046C2000065C2000063C2000061C2000075
S11300105FC200005DC200005BC2000059C2000064
S113002057C2000055C2000053C2000051C2000074
S11300304FC200004DC2000062C500008DC5000023
S1130040B8C50000E3C500000EC6000039C60000B4
S113005064C600008FC60000BAC60000E5C60000F2
S113006037C2000035C2000033C2000031C20000B4
S11300702FC200002DC200002BC2000029C20000C4
S113008027C2000025C2000023C2000021C20000D4
S11300901FC200001DC200001BC2000019C20000E4
S11300A017C2000015C2000013C2000011C20000F4
S11300B00FC200000DC200000BC200000C94030923
S11300C00C9430090C945D090C948A090C94B709BA
S11300D00C94E4090C94110A0C943E0A0C946B0AD7
S11300E00C94980AF5C10000F3C10000F1C10000AE
S11300F0EFC10000EDC10000EBC10000E9C1000048
S1130100E7C10000E5C10000E3C10000E1C1000057
S1130110DFC10000DDC10000DBC10000D9C1000067
S1130120D7C10000D5C10000D3C10000D1C1000077
S1130130CFC10000A6C60000D1C60000FCC6000066
S113014027C7000052C700007DC70000A8C70000F1
S1130150D3C70000FEC700000C94D608B9C1000044
S1130160B7C10000B5C10000B3C10000B1C10000B7
S1130170AFC10000ADC10000ABC10000A9C10000C7
S1130180A7C10000A5C10000A3C10000A1C10000D7
S11301909FC100009DC100009BC1000099C10000E7
S11301A097C1000095C1000093C1000091C10000F7
S11301B00C94C50A0C94F20A0C941F0B0C944C0B6F
S11301C00C94790B0C94A60B83C1000081C1000030
S11301D07FC100007DC100007BC1000079C1000027
S11301E077C1000075C1000073C1000071C1000037
S11301F06FC100006DC100006BC100000000000071
S1130200000000202020202000205050500000003A
S1130210005050F850F850502078A07028F020C0BA
S1130220C810204098186090A040A89068602040B2
S1130230000000001020404040201040201010100A
S11302402040005020F8205000002020F8202000FA
S113025000000000602040000000F80000000000E2
S1130260000000606000081020408000708898A89A
S1130270C8887020602020202070708808102040DA
S1130280F8F810201008887010305090F81010F80A
S113029080F008088870304080F0888870F8081072
S11302A020404040708888708888707088887808FA
S11302B010600060600060600000606000602040CA
S11302C0081020402010080000F800F800008040CA
S11302D02010204080708808102000207088086852
S11302E0A8A87070888888F88888F08888F088883A
S11302F0F070888080808870E09088888890E0F82A
S11303008080F08080F8F88080E080808070888031
S113031080988870888888F88888887020202020B1
S11303202070381010101090608890A0C0A09088A1
S1130330808080808080F888D8A888888888888889
S1130340C8A898888870888888888870F08888F019
S113035080808070888888A89068F08888F0A09051
S113036088788080700808F0F820202020202088D9
S113037088888888887088888888885020888888B1
S1130380A8A8D88888885020508888888850202039
S11303902020F80810204080F83820202020203821
S11303A000804020100800E02020202020E0205081
S11303B08800000000000000000000F84020100049
S11303C0000000000070087888788080B0C88888B1
S11303D0F000007080808870080868988888780029
S11303E0007088F88070304840E040404000007859
S11303F0887808308080B0C88888882000602020F1
S113040020701000301010906040404850605048F8
S1130410602020202020700000D0A8A88888000038
S1130420B0C8888888000070888888700000F088C8
S1130430F08080000068987808080000B0C88080C8
S113044080000070807008F04040E0404048300078
S11304500088888898680000888888502000008870
S113046088A8A85000008850205088000088887808
S113047008700000F8102040F810202040202010C0
S11304802020202020202040202010202040112443
S11304901FBECFEFCDBFDFE5DEBF00E00CBF10E233
S11304A0A0E0B0E2ECE5FCE200E00BBF02C0079084
S11304B00D92AC32B107D9F724E2ACE2B0E201C04C
S11304C01D92A931B207E1F70E9431120C942C1647
S11304D097CD04C0615071098109910961157105B5
S11304E081059105B9F70895BF92CF92DF92EF92FB
S11304F0FF920F931F93CF93DF931F92CDB7DEB775
S113050000E016E06894FF24F3F8F801F68264E052
S113051070E080E090E0DDDFF801F58264E070E0F7
S113052080E090E0D6DF0F2EFBE2BF2EF02DB982E3
S113053080EA99E00E94970EC12CD12C760100E448
S113054012E42FE030E043E0BE016F5F7F4F80EAAA
S113055099E00E94C60E00E616E0FF24F394F80129
S1130560F682B982BE016F5F7F4F80EA99E00E94F4
S1130570E00EF801F682E0EAF9E0818185FFFDCF23
S113058080EA8093A009E0EAF9E0818186FFFDCF4B
S1130590E0EAF9E080E481838081BE016F5F7F4FF0
S11305A080EA99E00E94F60E8BE28983BE016F5FB8
S11305B07F4F80EA99E00E94E00E81E08093660616
S11305C0E0EAF9E0818185FFFDCF86EA8093A00906
S11305D0E0EAF9E0818186FFFDCFE0EAF9E080E41A
S11305E081838081BE016F5F7F4F80EA99E00E9422
S11305F0F60E8BE28983BE016F5F7F4F80EA99E03C
S11306000E94E00E81E080936606E0EAF9E08181D1
S113061085FFFDCF88EC8093A009E0EAF9E08181B1
S113062086FFFDCFE0EAF9E080E481838081BE01AA
S11306306F5F7F4F80EA99E00E94F60E8BE2898318
S1130640BE016F5F7F4F80EA99E00E94E00E81E077
S113065080936606E0EAF9E0818185FFFDCF82EAB6
S11306608093A009E0EAF9E0818186FFFDCFE0EA0A
S1130670F9E080E481838081BE016F5F7F4F80EA6F
S113068099E00E94F60E8BE28983BE016F5F7F4F73
S113069080EA99E00E94E00E81E080936606E0EA39
S11306A0F9E0818185FFFDCF8FE28093A009E0EA24
S11306B0F9E0818186FFFDCFE0EAF9E080E48183FF
S11306C08081BE016F5F7F4F80EA99E00E94F60E41
S11306D08BE28983BE016F5F7F4F80EA99E00E94BD
S11306E0E00E81E080936606E0EAF9E0818185FF0F
S11306F0FDCF88EF8093A009E0EAF9E0818186FFCD
S1130700FDCFE0EAF9E080E481838081BE016F5F80
S11307107F4F80EA99E00E94F60E8BE28983BE0146
S11307206F5F7F4F80EA99E00E94E00E81E0809342
S11307306606E0EAF9E0818185FFFDCF1092A00909
S1130740E0EAF9E0818186FFFDCFE0EAF9E080E4A8
S113075081838081BE016F5F7F4F80EA99E00E94B0
S1130760F60E8BE28983BE016F5F7F4F80EA99E0CA
S11307700E94E00E81E080936606E0EAF9E0818160
S113078085FFFDCF81E28093A009E0EAF9E0818151
S113079086FFFDCFE0EAF9E080E481838081BE0139
S11307A06F5F7F4F80EA99E00E94F60E8BE28983A7
S11307B0BE016F5F7F4F80EA99E00E94E00E81E006
S11307C080936606E0EAF9E0818185FFFDCF81E848
S11307D08093A009E0EAF9E0818186FFFDCFE0EA99
S11307E0F9E080E481838081BE016F5F7F4F80EAFE
S11307F099E00E94F60E8BE28983BE016F5F7F4F02
S113080080EA99E00E94E00E81E080936606E0EAC7
S1130810F9E0818185FFFDCF81E28093A009E0EAC0
S1130820F9E0818186FFFDCFE0EAF9E080E481838D
S11308308081BE016F5F7F4F80EA99E00E94F60ECF
S11308408BE28983BE016F5F7F4F80EA99E00E944B
S1130850E00E81E080936606E0EAF9E0818185FF9D
S1130860FDCF8FEA8093A009E0EAF9E0818186FF59
S1130870FDCFE0EAF9E080E481838081BE016F5F0F
S11308807F4F80EA99E00E94F60E0F90DF91CF919E
S11308901F910F91FF90EF90DF90CF90BF9008953C
S11308A0FF920F931F93CF93DF931F92CDB7DEB7C1
S11308B0082FF62E142F0E94110F0F70006B8BE27D
S11308C08983BE016F5F7F4F80EA99E00E94E00E4A
S11308D081E080936606E0EAF9E0918195FFFDCF1F
S11308E00093A009E0EAF9E0818186FFFDCFE0EA08
S11308F0F9E080E481838081BE016F5F7F4F80EAED
S113090099E00E94F60E0F2D0F7702950F7000618B
S11309108BE28983BE016F5F7F4F80EA99E00E947A
S1130920E00E81E080936606E0EAF9E0818185FFCC
S1130930FDCF0093A009E0EAF9E0818186FFFDCFB5
S1130940E0EAF9E080E481838081BE016F5F7F4F3C
S113095080EA99E00E94F60E0F2D0F708BE28983D6
S1130960BE016F5F7F4F80EA99E00E94E00E81E054
S113097080936606E0EAF9E0818185FFFDCF00936C
S1130980A009E0EAF9E0818186FFFDCFE0EAF9E021
S113099080E481838081BE016F5F7F4F80EA99E0AC
S11309A00E94F60E8BE28983BE016F5F7F4F80EA5F
S11309B099E00E94E00E81E080936506E0EAF9E0A8
S11309C0818185FFFDCF1093A009E0EAF9E08181E0
S11309D086FFFDCFE0EAF9E080E48183808181E055
S11309E080936606BE016F5F7F4F80EA99E00E94A4
S11309F0F60E0F90DF91CF911F910F91FF90089504
S1130A000F931F93CF93DF931F92CDB7DEB78CE282
S1130A1090E20E940C0F68DD8BE28983BE016F5F58
S1130A207F4F80EA99E00E94E00E81E080936606A1
S1130A30E0EAF9E0818185FFFDCF80E48093A0099D
S1130A40E0EAF9E0818186FFFDCFE0EAF9E080E4A5
S1130A5081838081BE016F5F7F4F80EA99E00E94AD
S1130A60F60E00E00AC040E0612F802F19DF1F5FFF
S1130A701038C9F70F5F043011F010E0F4CF0F9075
S1130A80DF91CF911F910F910895FF920F931F93C0
S1130A90CF93DF93882354F1603240F5D42FC82FCD
S1130AA0F62EF694F694F69470E088E0F89E6019B9
S1130AB07109112481E090E08C0102C0000F111F24
S1130AC06A95E2F76C2F8F2D0E941F0FD13021F011
S1130AD028F0D23031F006C0802B04C0009580236A
S1130AE001C08027482F6C2F8F2DDADEDF91CF9144
S1130AF01F910F91FF9008950C941F0F08951F925A
S1130B000F920FB60F9211240BB60F922F933F93AF
S1130B104F935F936F937F938F939F93AF93BF9301
S1130B20EF93FF93E0917222F0917322309709F0D2
S1130B301995FF91EF91BF91AF919F918F917F9103
S1130B406F915F914F913F912F910F900BBE0F903A
S1130B500FBE0F901F9018951F920F920FB60F9211
S1130B6011240BB60F922F933F934F935F936F9380
S1130B707F938F939F93AF93BF93EF93FF93E091F2
S1130B807022F0917122309709F01995FF91EF913D
S1130B90BF91AF919F918F917F916F915F914F9191
S1130BA03F912F910F900BBE0F900FBE0F901F908F
S1130BB018951F920F920FB60F9211240BB60F9235
S1130BC02F933F934F935F936F937F938F939F9351
S1130BD0AF93BF93EF93FF93E0916E22F0916F2256
S1130BE0309709F01995FF91EF91BF91AF919F91C3
S1130BF08F917F916F915F914F913F912F910F90C2
S1130C000BBE0F900FBE0F901F9018951F920F925E
S1130C100FB60F9211240BB60F922F933F934F935D
S1130C205F936F937F938F939F93AF93BF93EF9350
S1130C30FF93E0916C22F0916D22309709F01995A1
S1130C40FF91EF91BF91AF919F918F917F916F91A0
S1130C505F914F913F912F910F900BBE0F900FBE5C
S1130C600F901F9018951F920F920FB60F92112498
S1130C700BB60F922F933F934F935F936F937F9392
S1130C808F939F93AF93BF93EF93FF93E0916A2267
S1130C90F0916B22309709F01995FF91EF91BF9174
S1130CA0AF919F918F917F916F915F914F913F9100
S1130CB02F910F900BBE0F900FBE0F901F901895A1
S1130CC01F920F920FB60F9211240BB60F922F930F
S1130CD03F934F935F936F937F938F939F93AF93C0
S1130CE0BF93EF93FF93E0916822F09169223097CC
S1130CF009F01995FF91EF91BF91AF919F918F9159
S1130D007F916F915F914F913F912F910F900BBE07
S1130D100F900FBE0F901F9018951F920F920FB651
S1130D200F9211240BB60F922F933F934F935F931F
S1130D306F937F938F939F93AF93BF93EF93FF939F
S1130D40E0916622F0916722309709F01995FF919E
S1130D50EF91BF91AF919F918F917F916F915F912F
S1130D604F913F912F910F900BBE0F900FBE0F909C
S1130D701F9018951F920F920FB60F9211240BB665
S1130D800F922F933F934F935F936F937F938F9320
S1130D909F93AF93BF93EF93FF93E0916422F091FD
S1130DA06522309709F01995FF91EF91BF91AF91AA
S1130DB09F918F917F916F915F914F913F912F916F
S1130DC00F900BBE0F900FBE0F901F9018951F929F
S1130DD00F920FB60F9211240BB60F922F933F93DD
S1130DE04F935F936F937F938F939F93AF93BF932F
S1130DF0EF93FF93E0916222F0916322309709F020
S1130E001995FF91EF91BF91AF919F918F917F9130
S1130E106F915F914F913F912F910F900BBE0F9067
S1130E200FBE0F901F9018951F920F920FB60F923E
S1130E3011240BB60F922F933F934F935F936F93AD
S1130E407F938F939F93AF93BF93EF93FF93E0911F
S1130E506022F0916122309709F01995FF91EF918A
S1130E60BF91AF919F918F917F916F915F914F91BE
S1130E703F912F910F900BBE0F900FBE0F901F90BC
S1130E8018951F920F920FB60F9211240BB60F9262
S1130E902F933F934F935F936F937F938F939F937E
S1130EA0AF93BF93EF93FF93E0915E22F0915F22A3
S1130EB0309709F01995FF91EF91BF91AF919F91F0
S1130EC08F917F916F915F914F913F912F910F90EF
S1130ED00BBE0F900FBE0F901F9018951F920F928C
S1130EE00FB60F9211240BB60F922F933F934F938B
S1130EF05F936F937F938F939F93AF93BF93EF937E
S1130F00FF93E0915C22F0915D22309709F01995EE
S1130F10FF91EF91BF91AF919F918F917F916F91CD
S1130F205F914F913F912F910F900BBE0F900FBE89
S1130F300F901F9018951F920F920FB60F921124C5
S1130F400BB60F922F933F934F935F936F937F93BF
S1130F508F939F93AF93BF93EF93FF93E0915A22A4
S1130F60F0915B22309709F01995FF91EF91BF91B1
S1130F70AF919F918F917F916F915F914F913F912D
S1130F802F910F900BBE0F900FBE0F901F901895CE
S1130F901F920F920FB60F9211240BB60F922F933C
S1130FA03F934F935F936F937F938F939F93AF93ED
S1130FB0BF93EF93FF93E0915822F0915922309719
S1130FC009F01995FF91EF91BF91AF919F918F9186
S1130FD07F916F915F914F913F912F910F900BBE35
S1130FE00F900FBE0F901F9018951F920F920FB67F
S1130FF00F9211240BB60F922F933F934F935F934D
S11310006F937F938F939F93AF93BF93EF93FF93CC
S1131010E0915622F0915722309709F01995FF91EB
S1131020EF91BF91AF919F918F917F916F915F915C
S11310304F913F912F910F900BBE0F900FBE0F90C9
S11310401F9018951F920F920FB60F9211240BB692
S11310500F922F933F934F935F936F937F938F934D
S11310609F93AF93BF93EF93FF93E0915422F0913A
S11310705522309709F01995FF91EF91BF91AF91E7
S11310809F918F917F916F915F914F913F912F919C
S11310900F900BBE0F900FBE0F901F9018951F92CC
S11310A00F920FB60F9211240BB60F922F933F930A
S11310B04F935F936F937F938F939F93AF93BF935C
S11310C0EF93FF93E0915222F0915322309709F06D
S11310D01995FF91EF91BF91AF919F918F917F915E
S11310E06F915F914F913F912F910F900BBE0F9095
S11310F00FBE0F901F9018951F920F920FB60F926C
S113110011240BB60F922F933F934F935F936F93DA
S11311107F938F939F93AF93BF93EF93FF93E0914C
S11311205022F0915122309709F01995FF91EF91D7
S1131130BF91AF919F918F917F916F915F914F91EB
S11311403F912F910F900BBE0F900FBE0F901F90E9
S113115018951F920F920FB60F9211240BB60F928F
S11311602F933F934F935F936F937F938F939F93AB
S1131170AF93BF93EF93FF93E0914E22F0914F22F0
S1131180309709F01995FF91EF91BF91AF919F911D
S11311908F917F916F915F914F913F912F910F901C
S11311A00BBE0F900FBE0F901F9018951F920F92B9
S11311B00FB60F9211240BB60F922F933F934F93B8
S11311C05F936F937F938F939F93AF93BF93EF93AB
S11311D0FF93E0914C22F0914D22309709F019953C
S11311E0FF91EF91BF91AF919F918F917F916F91FB
S11311F05F914F913F912F910F900BBE0F900FBEB7
S11312000F901F9018951F920F920FB60F921124F2
S11312100BB60F922F933F934F935F936F937F93EC
S11312208F939F93AF93BF93EF93FF93E0914A22E1
S1131230F0914B22309709F01995FF91EF91BF91EE
S1131240AF919F918F917F916F915F914F913F915A
S11312502F910F900BBE0F900FBE0F901F901895FB
S11312601F920F920FB60F9211240BB60F922F9369
S11312703F934F935F936F937F938F939F93AF931A
S1131280BF93EF93FF93E0914822F0914922309766
S113129009F01995FF91EF91BF91AF919F918F91B3
S11312A07F916F915F914F913F912F910F900BBE62
S11312B00F900FBE0F901F9018951F920F920FB6AC
S11312C00F9211240BB60F922F933F934F935F937A
S11312D06F937F938F939F93AF93BF93EF93FF93FA
S11312E0E0914622F0914722309709F01995FF9139
S11312F0EF91BF91AF919F918F917F916F915F918A
S11313004F913F912F910F900BBE0F900FBE0F90F6
S11313101F9018951F920F920FB60F9211240BB6BF
S11313200F922F933F934F935F936F937F938F937A
S11313309F93AF93BF93EF93FF93E0914422F09177
S11313404522309709F01995FF91EF91BF91AF9124
S11313509F918F917F916F915F914F913F912F91C9
S11313600F900BBE0F900FBE0F901F9018951F92F9
S11313700F920FB60F9211240BB60F922F933F9337
S11313804F935F936F937F938F939F93AF93BF9389
S1131390EF93FF93E0914222F0914322309709F0BA
S11313A01995FF91EF91BF91AF919F918F917F918B
S11313B06F915F914F913F912F910F900BBE0F90C2
S11313C00FBE0F901F9018951F920F920FB60F9299
S11313D011240BB60F922F933F934F935F936F9308
S11313E07F938F939F93AF93BF93EF93FF93E0917A
S11313F04022F0914122309709F01995FF91EF9125
S1131400BF91AF919F918F917F916F915F914F9118
S11314103F912F910F900BBE0F900FBE0F901F9016
S113142018951F920F920FB60F9211240BB60F92BC
S11314302F933F934F935F936F937F938F939F93D8
S1131440AF93BF93EF93FF93E0913E22F0913F223D
S1131450309709F01995FF91EF91BF91AF919F914A
S11314608F917F916F915F914F913F912F910F9049
S11314700BBE0F900FBE0F901F9018951F920F92E6
S11314800FB60F9211240BB60F922F933F934F93E5
S11314905F936F937F938F939F93AF93BF93EF93D8
S11314A0FF93E0913C22F0913D22309709F0199589
S11314B0FF91EF91BF91AF919F918F917F916F9128
S11314C05F914F913F912F910F900BBE0F900FBEE4
S11314D00F901F9018951F920F920FB60F92112420
S11314E00BB60F922F933F934F935F936F937F931A
S11314F08F939F93AF93BF93EF93FF93E0913A221F
S1131500F0913B22309709F01995FF91EF91BF912B
S1131510AF919F918F917F916F915F914F913F9187
S11315202F910F900BBE0F900FBE0F901F90189528
S11315301F920F920FB60F9211240BB60F922F9396
S11315403F934F935F936F937F938F939F93AF9347
S1131550BF93EF93FF93E0913822F09139223097B3
S113156009F01995FF91EF91BF91AF919F918F91E0
S11315707F916F915F914F913F912F910F900BBE8F
S11315800F900FBE0F901F9018951F920F920FB6D9
S11315900F9211240BB60F922F933F934F935F93A7
S11315A06F937F938F939F93AF93BF93EF93FF9327
S11315B0E0913622F0913722309709F01995FF9186
S11315C0EF91BF91AF919F918F917F916F915F91B7
S11315D04F913F912F910F900BBE0F900FBE0F9024
S11315E01F9018951F920F920FB60F9211240BB6ED
S11315F00F922F933F934F935F936F937F938F93A8
S11316009F93AF93BF93EF93FF93E0913422F091B4
S11316103522309709F01995FF91EF91BF91AF9161
S11316209F918F917F916F915F914F913F912F91F6
S11316300F900BBE0F900FBE0F901F9018951F9226
S11316400F920FB60F9211240BB60F922F933F9364
S11316504F935F936F937F938F939F93AF93BF93B6
S1131660EF93FF93E0913222F0913322309709F007
S11316701995FF91EF91BF91AF919F918F917F91B8
S11316806F915F914F913F912F910F900BBE0F90EF
S11316900FBE0F901F9018951F920F920FB60F92C6
S11316A011240BB60F922F933F934F935F936F9335
S11316B07F938F939F93AF93BF93EF93FF93E091A7
S11316C03022F0913122309709F01995FF91EF9172
S11316D0BF91AF919F918F917F916F915F914F9146
S11316E03F912F910F900BBE0F900FBE0F901F9044
S11316F018951F920F920FB60F9211240BB60F92EA
S11317002F933F934F935F936F937F938F939F9305
S1131710AF93BF93EF93FF93E0912E22F0912F228A
S1131720309709F01995FF91EF91BF91AF919F9177
S11317308F917F916F915F914F913F912F910F9076
S11317400BBE0F900FBE0F901F9018951F920F9213
S11317500FB60F9211240BB60F922F933F934F9312
S11317605F936F937F938F939F93AF93BF93EF9305
S1131770FF93E0912C22F0912D22309709F01995D6
S1131780FF91EF91BF91AF919F918F917F916F9155
S11317905F914F913F912F910F900BBE0F900FBE11
S11317A00F901F9018951F93CF93DF931F921F9252
S11317B0CDB7DEB72FB72A83F8941A81282F392F93
S11317C0211588E0380739F461E083E0D8D364E078
S11317D083E0D5D343C0203488E0380739F462E08D
S11317E083E0CDD364E083E0CAD338C0211589E017
S11317F0380739F461E084E0C2D364E084E0BFD305
S11318002DC0203489E0380739F462E084E0B7D38E
S113181064E084E0B4D322C021158AE0380739F4A7
S113182061E085E0ACD364E085E0A9D317C020343F
S11318308AE0380739F462E085E0A1D364E085E00A
S11318409ED30CC021153B4039F461E086E097D368
S113185064E086E094D302C01FBF10C080911424BA
S11318608F3F09F4FFCF8FB78983F8949981E3E11F
S1131870F4E281818F5F81839FBF1FBF0F900F9020
S1131880DF91CF911F910895811528E0920729F4E3
S113189060937222709373220895803428E0920733
S11318A029F460936622709367220895811529E0D4
S11318B0920729F460935E2270935F220895803426
S11318C029E0920729F460935222709353220895D9
S11318D081152AE0920729F460934A2270934B22DF
S11318E0089580342AE0920729F460933E2270938D
S11318F03F22089581159B4021F460933622709312
S113190037220895CF92DF92EF92FF920F931F93A5
S1131910CF93DF93EC01D901C801B695A7959795AC
S11319208795481759076A077B0770F46A017B019A
S1131930CC0CDD1CEE1CFF1CC901B801A7019601EB
S11319408CD62150310902C020E030E0832F8F7003
S11319508F832E83DF91CF911F910F91FF90EF9092
S1131960DF90CF900895DF92EF92FF920F931F9331
S1131970CF93DF931F92CDB7DEB77C018B01009725
S113198009F4B2C1803C910521F460E180E0F7D212
S1131990ABC180E8E81681E0F80621F462E080E05B
S11319A0EED2A2C1E114E1E0FE0621F461E080E0A0
S11319B0E6D29AC1F0E8EF16F3E0FF0621F461E005
S11319C081E0DDD291C130E9E31633E0F30621F47E
S11319D061E082E0D4D288C1E11482E0F80621F407
S11319E062E081E0CCD280C1E0E4EE16E2E0FE06E3
S11319F021F462E082E0C3D277C1F0E2EF16F3E0B3
S1131A00FF0621F464E082E0BAD26EC1E11438E04A
S1131A10F30621F461E083E0B2D266C1E11489E007
S1131A20F80621F461E084E0AAD25EC1E114EAE0A0
S1131A30FE0621F461E085E0A2D256C1E114FBE088
S1131A40FF0621F461E086E09AD24EC130E4E31649
S1131A5038E0F30621F462E083E091D245C180E4EA
S1131A60E81689E0F80621F462E084E088D23CC1FB
S1131A70E0E4EE16EAE0FE0621F462E085E07FD2BF
S1131A8033C1F0E9EF16F8E0FF0621F464E083E0E7
S1131A9076D22AC130E9E31639E0F30621F464E092
S1131AA084E06DD221C180E9E8168AE0F80621F4C9
S1131AB064E085E064D218C1E0E9EE16EBE0FE06CE
S1131AC021F464E086E05BD20FC1F0ECEF16F8E09D
S1131AD0FF0621F468E083E052D206C130ECE3163D
S1131AE039E0F30621F468E084E049D2FDC080EADD
S1131AF0E81688E0F80661F460E183E040D2E0EAA9
S1131B00F8E084818F7E8483F801248122504CC0C4
S1131B10F0EAEF16F9E0FF0621F460E184E02FD249
S1131B20E3C030EAE3163AE0F30621F460E185E02D
S1131B3026D2DAC080EAE8168BE0F80621F460E1E8
S1131B4086E01DD2D1C0E0EBEE16E8E0FE0621F4FB
S1131B5060E283E014D2C8C0F0EBEF16F9E0FF06B0
S1131B6021F460E284E00BD2BFC030E8E31634E035
S1131B70F30621F460E483E002D2B6C080EAE816FA
S1131B8084E0F80621F460E485E0F9D1ADC0F70102
S1131B9084818F7E8483FB0124812250C701F0EA73
S1131BA0EF16F8E0FF0649F480914E0684FDA5C0C7
S1131BB00F2EF1E1DF2EF02DA4C0803B38E0930717
S1131BC091F0803AE9E09E0749F430916E0634FDC5
S1131BD09BC00F2EF9E1DF2EF02D16C0803BF9E0FB
S1131BE09F07F1F004C00F2EF5E1DF2EF02D803AAF
S1131BF03AE0930749F480918E0684FD8AC00F2E43
S1131C00F1E2DF2EF02D15C0803A9B4091F48091D3
S1131C10AE0684FD0AC00F2EF9E2DF2EF02D09C0B6
S1131C200F2EFDE1DF2EF02D04C00F2EFDE2DF2E7E
S1131C30F02DED2DE695E695E69530E2E39FF00173
S1131C401124FA5F3D2D377081E090E0032E02C02D
S1131C50880F991F0A94E2F78183223010F040E044
S1131C6001C040E4DF015096A30FB11D9FB79983D3
S1131C70F89439812C9127702C939C91942B9C93EC
S1131C803FBF8583F7018581806C8583F80184815A
S1131C908D7F813029F4F70185818260858304C0BA
S1131CA0F70185818D7F8583F8018581882329F05B
S1131CB0F70185818460858304C0F70185818B7F6A
S1131CC08583F801408151816281738100E814E8C1
S1131CD02EE130E0C70116DEF70184818860848339
S1131CE08481806184831AC0F70184818F7E848318
S1131CF0F80124812250C70160CF0F2EF5E1DF2EB9
S1131D00F02D80EA98E06ACF0F2EFDE1DF2EF02D52
S1131D107BCF0F2EF5E2DF2EF02D8BCF0F90DF91CE
S1131D20CF911F910F91FF90EF90DF900895803A2B
S1131D3028E0920721F460E183E021C10895803B0B
S1131D4028E0920721F460E283E019C10895803A03
S1131D5029E0920721F460E184E011C10895803BF9
S1131D6029E0920721F460E284E009C10895803AF1
S1131D702AE0920721F460E185E001C10895803AE8
S1131D809B4019F460E186E0FAC008950F931F9315
S1131D90CF93DF9300D000D0CDB7DEB709831A8389
S1131DA02B833C834D831E82BE016F5F7F4FDBDD3F
S1131DB02696CDBFDEBFDF91CF911F910F9108957D
S1131DC0FB018081E82FE695E695E69540E2E49FE5
S1131DD0F0011124FA5F877021E030E0A90102C00C
S1131DE0440F551F8A95E2F746830895FB018081CD
S1131DF0E82FE695E695E69540E2E49FF00111248C
S1131E00FA5F877021E030E0A90102C0440F551F3A
S1131E108A95E2F7458308958093742290937522FE
S1131E200895209174223091752290E8899F200DA5
S1131E30311D1124F901E60FF11D4083089520910D
S1131E4074223091752290E8899F200D311D112450
S1131E50F901E60FF11D80810895FF920F931F93FE
S1131E60CF93DF93E42FF0E0E80FF11DE138F105A3
S1131E701CF0C0E84C2F481B442309F450C0D62F53
S1131E80D695D695D69570E098E0D99F60197109DA
S1131E901124E1E0F0E0DF0102C0AA0FBB1F6A9544
S1131EA0E2F7FA2E213021F0A8F0223039F137C0C0
S1131EB0C42F1FEF180F012F0C0F602F8D2F0E94BE
S1131EC07C054F2D482B602F8D2F0E945004C1504C
S1131ED091F725C0C42F1FEF180FFA2EF094012F8D
S1131EE00C0F602F8D2F0E947C054F2D4823602FEF
S1131EF08D2F0E945004C15091F711C0C42F1FEFC1
S1131F00180F012F0C0F602F8D2F0E947C054F2D71
S1131F104827602F8D2F0E945004C15091F7DF9104
S1131F20CF911F910F91FF900895FF920F931F93EC
S1131F30CF93DF93222369F0F42E182FC22FDFEF03
S1131F40D60F6D2F6C0F202F4F2D812F86DFC150A0
S1131F50C1F7DF91CF911F910F91FF9008958FEFFB
S1131F60809370008093710080937200809373005B
S1131F708093740080937500809376000895CF93C6
S1131F80DF931F92CDB7DEB79FB79983F8949981F9
S1131F90E82FF0E0E059FF4F60958081682360836B
S1131FA09FBF0F90DF91CF910895AF92BF92CF92D0
S1131FB0DF92EF92FF920F931F93CF93DF93C82F7B
S1131FC0E62EB42E690100E0F901248143816B2DD2
S1131FD08E2DABDFF601808181113AC08381282FD9
S1131FE0269526952695877009F02F5FF601A48023
S1131FF08C2F90E03581831B91092A9D9001112437
S1132000829FA001839F500D929F500D1124018146
S11320101281040F151FF601F380FF20A9F0D0E010
S1132020C0E08E2D8C0F9C2F977021F4F801D49171
S11320300F5F1F4FDD2324F441E06B2D0E94450503
S1132040DD0FCF5FFC12EDCFB394AA94A110E3CFC0
S1132050DF91CF911F910F91FF90EF90DF90CF9080
S1132060BF90AF900895DF92EF92FF920F931F936A
S1132070CF93DF93D62E042F7901EC01162F89918B
S11320808A3031F4F70184818F5F080F1D2D09C058
S11320908D3039F09701402F612F87DFF70183815D
S11320A0180F88818111EBCFDF91CF911F910F9190
S11320B0FF90EF90DF900895CF93DF93FC0120E031
S11320C030E0C62FD0E0DE01022E02C0B595A79500
S11320D00A94E2F7A0FD508B2F5F3F4F31962830D2
S11320E0310589F740FF0AC041FF03C0FC01658345
S11320F002C0FC016683FC01618302C0FC016283AF
S1132100DF91CF91089543E050E061E080EE97E0E5
S1132110D3DF43E050E062E080EE97E0CDDF43E0C0
S113212050E060E180E696E0C7DF41E050E460E221
S113213080E696E0C1DF40E05BE160E280E896E0A3
S1132140BBDF40E05BE162E080EA96E0B5DF40E0BF
S11321505BE164E080EA96E0AFDF43E050E062E0F8
S113216080E696E0A9DF43E050E068E080E696E090
S1132170A3DF43E050E068E080EA96E09DDF43E0BF
S113218050E061E080E696E097DF43E050E068E0ED
S113219080E096E091DF41E050E060E180E896E085
S11321A08BDF43E050E062E080E696E085DF43E0C9
S11321B050E068E080E696E07FDF40E050E064E0D5
S11321C080E696E079DF43E050E060E180EA96E063
S11321D073DF40E050E061E080E096E06DDF40E0D6
S11321E050E064E080E096E067DF40E050E062E0C9
S11321F080E296E061DF43E050E068E080E496E04E
S11322005BDF40E050E064E080E496E055DF43E0CB
S113221050E068E080E696E04FDF40E050E064E0A4
S113222080E696E049DF43E050E068E080E896E02D
S113223043DF40E050E064E080E896E03DCF08955D
S113224004C0615071098109910961157105810505
S11322509105B9F7089580910F2490911024892B4A
S113226051F482E08093E50781E090E080930F24AD
S113227090931024089582E08093E60710920F242F
S113228010921024089580910D2490910E24892B8E
S113229051F481E08093E50781E090E080930D2480
S11322A090930E24089581E08093E60710920D2404
S11322B010920E2408958091112490911224892B58
S11322C051F480E18093650681E090E080931124CD
S11322D090931224089580E180936606109211244D
S11322E010921224089580913E2390913F230196E9
S11322F080933E2390933F23089580910B249091E3
S11323000C24019680930B2490930C249F938F9319
S113231087E090E29F938F931F9289EC8F9382E4DE
S113232093E29F938F93BBD120E030E240E060E0E2
S113233082E493E298DE8DB79EB708968DBF9EBF68
S1132340089580E098E02FDA63E771E180E098E097
S11323509BDAE0E0F8E08181887F81838AE390E082
S113236086A397A386818C7F8683868183608683F8
S11323708081807F81608083089580E099E013DA12
S11323806BE271E180E099E07FDAE0E0F9E08181DD
S1132390887F818380ED97E086A397A386818C7FD5
S11323A086838681816086838081807F8760808345
S11323B07894089580E499E0F6D963E471E180E4C7
S11323C099E062DAE0E4F9E08181887F818388EE34
S11323D093E086A397A386818C7F86838681816020
S11323E086838081807F876080837894089580E0ED
S11323F09AE0D9D96BE571E180E09AE045DAE0E052
S1132400FAE08181887F818384EF91E086A397A39A
S113241086818C7F86838681816086838081807FAC
S1132420876080837894089580E49AE0BCD96DE74E
S113243071E180E49AE028DAE0E4FAE08181887FBF
S1132440818388EE93E086A397A386818C7F86831D
S11324508681816086838081807F87608083789491
S1132460089551DE7CDD87E08093A2000E94000580
S113247064E080E084DDE0E2F4E0818180FDFDCF72
S113248080E18093850666E176E185E090E0D8DE20
S113249074DF90DFACDFC8DF81E080930106C0E227
S11324A0D6E077247A940F2EFBE1EF2EF0E2FF2E94
S11324B0F02D0F2EF8EC5F2EF02D06E712E20F2E12
S11324C0A12CF6E0BF2EF02D662463940F2EFCE2BF
S11324D08F2E99249394F02D0F2EFCE24F2EF02D85
S11324E080910B2490910C248A309105CCF30A97A7
S11324F009F427DF78821C827C8262E070E080E04D
S113250090E09EDE1C8218826BEF70E080E090E029
S113251097DEC0903E23D0903F2367E270E080E0D6
S113252090E08EDE7894888580FDFDCF20913E2357
S113253030913F23F89480913E2390913F238D3234
S1132540914014F180924023909241236F924F92D4
S1132550FF92EF921F925F921F930F93A0D020E0FF
S113256030E248E060E0C8017EDD66E372E880E0C6
S113257090E066DE10923E2310923F238DB79EB703
S113258008968DBF9EBFACCFF901EC19FD096F0110
S1132590DF92EF93FF92EF921F925F921F930F933C
S11325A07ED020E030E248E060E0C8015CDD66E314
S11325B072E880E090E044DE10923E2310923F23C4
S11325C08DB79EB708968DBF9EBF93E3C916D104FD
S11325D07CF0F50165826BE07BE882E090E030DE20
S11325E0F50166826BE07BE882E090E029DE78CF3B
S11325F0FAE1CF16D1047CF0F501658266E875E452
S113260081E090E01DDEF501668266E875E481E014
S113261090E016DE65CFFBE0CF16D1047CF0F50127
S1132620658263EC72EA80E090E00ADEF50166827E
S113263063EC72EA80E090E003DE52CFF50165823C
S113264066E07DE080E090E0FBDDF50166826EE40B
S113265071E080E090E0F4DD43CFA1E21A2EAA1BE2
S1132660BB1BFD010DC0AA1FBB1FEE1FFF1FA2173E
S1132670B307E407F50720F0A21BB30BE40BF50B3B
S1132680661F771F881F991F1A9469F760957095C4
S1132690809590959B01AC01BD01CF0108950F93E6
S11326A01F93CF93DF93CDB7DEB72E97CDBFDEBF99
S11326B00E891F89888D998D26E02C8309831A83BE
S11326C097FF02C080E090E801978D839E83AE015E
S11326D0445E5F4F6A8D7B8DCE01019616D04D818D
S11326E05E8157FD0AC02F813885421753070CF4C9
S11326F09A01F801E20FF31F10822E96CDBFDEBFC0
S1132700DF91CF911F910F9108952F923F924F9295
S11327105F926F927F928F929F92AF92BF92CF926D
S1132720DF92EF92FF920F931F93CF93DF93CDB776
S1132730DEB72B97CDBFDEBF6C017B018A01FC01A4
S113274016821782838181FFBFC1CE0101963C01AD
S1132750F6019381F70193FD859193FF81917F01A8
S1132760882309F4ADC1853239F493FD859193FF33
S113277081917F01853221F4B60190E0D3D1E8CF75
S1132780912C212C312CFFE1F315D8F08B3279F008
S113279038F4803279F08332A1F4232D20611DC0F6
S11327A08D3261F0803369F4232D216016C0832DAE
S11327B08260382EE32DE4603E2E2AC0F32DF860AB
S11327C01DC037FC2DC020ED280F2A3040F08E327A
S11327D0B9F436FC75C1232D2064322E19C036FE9F
S11327E006C08AE0989E200D1124922E11C0EAE0C2
S11327F02E9E200D1124222EF32DF0623F2E08C0B0
S11328008C3621F4832D8068382E02C0883641F43A
S1132810F70193FD859193FF81917F018111B3CFDE
S1132820982F9F7D9554933028F40C5F1F4F9FE39E
S113283099830DC0833631F0833771F0833509F005
S113284055C020C0F801808189830E5F1F4F882402
S11328508394912C530112C02801F2E04F0E511CB5
S1132860F801A080B18036FE03C0692D70E002C07B
S11328706FEF7FEFC5014BD14C018201F32DFF7740
S11328803F2E15C0280122E0420E511CF801A08001
S1132890B18036FE03C0692D70E002C06FEF7FEF98
S11328A0C5012AD14C01F32DF0683F2E820133FC7F
S11328B019C0822D90E088169906A0F4B60180E232
S11328C090E030D12A94F5CFF50137FC859137FE9D
S11328D081915F01B60190E025D121102A9421E075
S11328E0821A91088114910479F7E1C0843611F0B9
S11328F0893639F5F80137FE07C06081718182811C
S113290093810C5F1F4F08C060817181072E000CFA
S1132910880B990B0E5F1F4FF32DFF763F2E97FF09
S113292009C090958095709561957F4F8F4F9F4F0B
S1132930F0683F2E2AE030E0A30130D1882E8618BB
S113294044C0853731F4232D2F7EB22E2AE030E0A7
S113295025C0932D997FB92E8F36C1F018F4883590
S113296079F0AEC0803719F0883721F0A9C0E92F7B
S1132970E061BE2EB4FE0DC0FB2DF460BF2E09C075
S113298034FE0AC0292F2660B22E06C028E030E0AB
S113299005C020E130E002C020E132E0F801B7FEDA
S11329A007C060817181828193810C5F1F4F06C0D3
S11329B06081718180E090E00E5F1F4FA301EED033
S11329C0882E8618FB2DFF773F2E36FE0DC0232D53
S11329D02E7FA22E891458F434FE0BC032FC09C099
S11329E0832D8E7EA82E05C0B82CA32C03C0B82C32
S11329F001C0B92CA4FE0FC0FE01E80DF11D8081B9
S1132A00803321F49A2D997EA92E09C0A2FE06C016
S1132A10B394B39404C08A2D867809F0B394A3FCCC
S1132A2010C0A0FE06C0B21480F4280C922C9B188F
S1132A300DC0B21458F4B60180E290E073D0B394A0
S1132A40F8CFB21418F42B1802C0982C212CA4FE31
S1132A500FC0B60180E390E065D0A2FE16C0A1FCD1
S1132A6003C088E790E002C088E590E0B6010CC09E
S1132A708A2D867851F0A1FE02C08BE201C080E26B
S1132A80A7FC8DE2B60190E04DD0891430F4B60174
S1132A9080E390E047D09A94F8CF8A94F301E80D4C
S1132AA0F11D8081B60190E03DD08110F6CF222047
S1132AB009F44ECEB60180E290E034D02A94F7CFE8
S1132AC0F6018681978102C08FEF9FEF2B96CDBFD1
S1132AD0DEBFDF91CF911F910F91FF90EF90DF90B8
S1132AE0CF90BF90AF909F908F907F906F905F90AA
S1132AF04F903F902F900895FC01059061507040D5
S1132B000110D8F7809590958E0F9F1F0895FC01B2
S1132B106150704001900110D8F7809590958E0F08
S1132B209F1F08950F931F93CF93DF93FB0123817E
S1132B3021FD03C08FEF9FEF2CC022FF16C04681FA
S1132B405781248135814217530744F4A081B18110
S1132B509D012F5F3F4F208331838C9326813781E2
S1132B602F5F3F4F2683378314C08B01EC01FB0199
S1132B700084F185E02D1995892BE1F6D80116968C
S1132B808D919C911797019616968D939C93179708
S1132B90CE01DF91CF911F910F910895FA01AA27D9
S1132BA0283051F1203181F1E8946F936E7F6E5F8C
S1132BB07F4F8F4F9F4FAF4FB1E03ED0B4E03CD03A
S1132BC0670F781F891F9A1FA11D680F791F8A1F1D
S1132BD0911DA11D6A0F711D811D911DA11D20D084
S1132BE009F468943F912AE0269F11243019305D3E
S1132BF03193DEF6CF010895462F4770405D41932F
S1132C00B3E00FD0C9F7F6CF462F4F70405D4A337B
S1132C1018F0495D31FD4052419302D0A9F7EACF43
S1132C20B4E0A6959795879577956795BA95C9F772
S1132C3000976105710508959B01AC010A2E069465
S1132C405795479537952795BA95C9F7620F731F1E
S10F2C50841F951FA01D0895F894FFCF69
S1132C5C00FC010607207D436F756E7465723A2083
S1132C6C25642074696D657320200050616E6A615F
S10F2C7C6E673A20256420636D20200060
S9030000FC
